{
  "contractName": "GetSetMessage",
  "abi": [
    {
      "constant": true,
      "inputs": [
        {
          "name": "",
          "type": "uint256"
        }
      ],
      "name": "message",
      "outputs": [
        {
          "name": "Name",
          "type": "string"
        },
        {
          "name": "ModuleName",
          "type": "string"
        }
      ],
      "payable": false,
      "stateMutability": "view",
      "type": "function",
      "signature": "0xd1e8507b"
    },
    {
      "constant": false,
      "inputs": [
        {
          "name": "_name",
          "type": "string"
        },
        {
          "name": "_modulename",
          "type": "string"
        }
      ],
      "name": "setMessage",
      "outputs": [],
      "payable": false,
      "stateMutability": "nonpayable",
      "type": "function",
      "signature": "0x9cd38a49"
    },
    {
      "constant": true,
      "inputs": [],
      "name": "getMessage",
      "outputs": [
        {
          "name": "name",
          "type": "string"
        },
        {
          "name": "module",
          "type": "string"
        }
      ],
      "payable": false,
      "stateMutability": "view",
      "type": "function",
      "signature": "0xce6d41de"
    },
    {
      "constant": true,
      "inputs": [
        {
          "name": "Name",
          "type": "string"
        }
      ],
      "name": "getMessageByOne",
      "outputs": [
        {
          "name": "",
          "type": "string"
        },
        {
          "name": "",
          "type": "string"
        }
      ],
      "payable": false,
      "stateMutability": "view",
      "type": "function",
      "signature": "0x6fdea628"
    }
  ],
  "bytecode": "0x608060405234801561001057600080fd5b50610cb0806100206000396000f3fe608060405260043610610062576000357c0100000000000000000000000000000000000000000000000000000000900463ffffffff1680636fdea628146100675780639cd38a4914610214578063ce6d41de14610373578063d1e8507b1461046f575b600080fd5b34801561007357600080fd5b5061012d6004803603602081101561008a57600080fd5b81019080803590602001906401000000008111156100a757600080fd5b8201836020820111156100b957600080fd5b803590602001918460018302840111640100000000831117156100db57600080fd5b91908080601f016020809104026020016040519081016040528093929190818152602001838380828437600081840152601f19601f82011690508083019250505050505050919291929050505061058f565b604051808060200180602001838103835285818151815260200191508051906020019080838360005b83811015610171578082015181840152602081019050610156565b50505050905090810190601f16801561019e5780820380516001836020036101000a031916815260200191505b50838103825284818151815260200191508051906020019080838360005b838110156101d75780820151818401526020810190506101bc565b50505050905090810190601f1680156102045780820380516001836020036101000a031916815260200191505b5094505050505060405180910390f35b34801561022057600080fd5b506103716004803603604081101561023757600080fd5b810190808035906020019064010000000081111561025457600080fd5b82018360208201111561026657600080fd5b8035906020019184600183028401116401000000008311171561028857600080fd5b91908080601f016020809104026020016040519081016040528093929190818152602001838380828437600081840152601f19601f820116905080830192505050505050509192919290803590602001906401000000008111156102eb57600080fd5b8201836020820111156102fd57600080fd5b8035906020019184600183028401116401000000008311171561031f57600080fd5b91908080601f016020809104026020016040519081016040528093929190818152602001838380828437600081840152601f19601f820116905080830192505050505050509192919290505050610784565b005b34801561037f57600080fd5b5061038861087c565b604051808060200180602001838103835285818151815260200191508051906020019080838360005b838110156103cc5780820151818401526020810190506103b1565b50505050905090810190601f1680156103f95780820380516001836020036101000a031916815260200191505b50838103825284818151815260200191508051906020019080838360005b83811015610432578082015181840152602081019050610417565b50505050905090810190601f16801561045f5780820380516001836020036101000a031916815260200191505b5094505050505060405180910390f35b34801561047b57600080fd5b506104a86004803603602081101561049257600080fd5b8101908080359060200190929190505050610a7c565b604051808060200180602001838103835285818151815260200191508051906020019080838360005b838110156104ec5780820151818401526020810190506104d1565b50505050905090810190601f1680156105195780820380516001836020036101000a031916815260200191505b50838103825284818151815260200191508051906020019080838360005b83811015610552578082015181840152602081019050610537565b50505050905090810190601f16801561057f5780820380516001836020036101000a031916815260200191505b5094505050505060405180910390f35b60608060006001846040518082805190602001908083835b6020831015156105cc57805182526020820191506020810190506020830392506105a7565b6001836020036101000a038019825116818451168082178552505050505050905001915050908152602001604051809103902054905060008181548110151561061157fe5b906000526020600020906002020160000160008281548110151561063157fe5b9060005260206000209060020201600101818054600181600116156101000203166002900480601f0160208091040260200160405190810160405280929190818152602001828054600181600116156101000203166002900480156106d75780601f106106ac576101008083540402835291602001916106d7565b820191906000526020600020905b8154815290600101906020018083116106ba57829003601f168201915b50505050509150808054600181600116156101000203166002900480601f0160208091040260200160405190810160405280929190818152602001828054600181600116156101000203166002900480156107735780601f1061074857610100808354040283529160200191610773565b820191906000526020600020905b81548152906001019060200180831161075657829003601f168201915b505050505090509250925050915091565b6000805490506001836040518082805190602001908083835b6020831015156107c2578051825260208201915060208101905060208303925061079d565b6001836020036101000a0380198251168184511680821785525050505050509050019150509081526020016040518091039020819055506000604080519081016040528084815260200183815250908060018154018082558091505090600182039060005260206000209060020201600090919290919091506000820151816000019080519060200190610857929190610bdf565b506020820151816001019080519060200190610874929190610bdf565b505050505050565b60608060008090505b600080549050811015610a7157826000828154811015156108a257fe5b90600052602060002090600202016000016040516020018083805190602001908083835b6020831015156108eb57805182526020820191506020810190506020830392506108c6565b6001836020036101000a038019825116818451168082178552505050505050905001828054600181600116156101000203166002900480156109645780601f10610942576101008083540402835291820191610964565b820191906000526020600020905b815481529060010190602001808311610950575b50509250505060405160208183030381529060405292508160008281548110151561098b57fe5b90600052602060002090600202016001016040516020018083805190602001908083835b6020831015156109d457805182526020820191506020810190506020830392506109af565b6001836020036101000a03801982511681845116808217855250505050505090500182805460018160011615610100020316600290048015610a4d5780601f10610a2b576101008083540402835291820191610a4d565b820191906000526020600020905b815481529060010190602001808311610a39575b50509250505060405160208183030381529060405291508080600101915050610885565b508181915091509091565b600081815481101515610a8b57fe5b9060005260206000209060020201600091509050806000018054600181600116156101000203166002900480601f016020809104026020016040519081016040528092919081815260200182805460018160011615610100020316600290048015610b375780601f10610b0c57610100808354040283529160200191610b37565b820191906000526020600020905b815481529060010190602001808311610b1a57829003601f168201915b505050505090806001018054600181600116156101000203166002900480601f016020809104026020016040519081016040528092919081815260200182805460018160011615610100020316600290048015610bd55780601f10610baa57610100808354040283529160200191610bd5565b820191906000526020600020905b815481529060010190602001808311610bb857829003601f168201915b5050505050905082565b828054600181600116156101000203166002900490600052602060002090601f016020900481019282601f10610c2057805160ff1916838001178555610c4e565b82800160010185558215610c4e579182015b82811115610c4d578251825591602001919060010190610c32565b5b509050610c5b9190610c5f565b5090565b610c8191905b80821115610c7d576000816000905550600101610c65565b5090565b9056fea165627a7a7230582028fabfe5a66e9cb46c4bb6febd3e48d62ad59f027fe24f6e9bd25f7c554cb45f0029",
  "source": "pragma solidity >=0.5.0;\r\n\r\ncontract GetSetMessage {\r\n    struct Message {\r\n        string Name;\r\n        string ModuleName;\r\n    }\r\n\r\n    Message[] public message;\r\n\r\n    function setMessage(string memory _name, string memory _modulename) public {\r\n        nameToindex[_name] = (uint256(message.length));\r\n        message.push(Message(_name, _modulename));\r\n        //nameToindex[_name] = (uint256(message.length) - 1);\r\n    }\r\n\r\n    function getMessage()\r\n        public\r\n        view\r\n        returns (string memory name, string memory module)\r\n    {\r\n        for (uint256 counter = 0; counter < message.length; counter++) {\r\n            name = string(abi.encodePacked(name, message[counter].Name));\r\n            module = string(\r\n                abi.encodePacked(module, message[counter].ModuleName)\r\n            );\r\n        }\r\n        return (name, module);\r\n    }\r\n\r\n    mapping(string => uint256) nameToindex;\r\n\r\n    function getMessageByOne(string memory Name)\r\n        public\r\n        view\r\n        returns (string memory, string memory)\r\n    {\r\n        uint256 index = nameToindex[Name];\r\n        return (message[index].Name, message[index].ModuleName);\r\n    }\r\n}\r\n",
  "sourcePath": "C:/Users/L33904.NYPSIT.000/desktop/getsetfunction/contracts/GetSetMessage.sol",
  "compiler": {
    "name": "solc",
    "version": "0.5.0+commit.1d4f565a.Emscripten.clang"
  },
  "schemaVersion": "3.0.1",
  "updatedAt": "2020-03-17T09:32:23.715Z",
  "devdoc": {
    "methods": {}
  },
  "userdoc": {
    "methods": {}
  }
}